:100000000C945D000C9485000C9485000C94850084
:100010000C9485000C9485000C9485000C9485004C
:100020000C9485000C9485000C9485000C9485003C
:100030000C9485000C9485000C9485000C9485002C
:100040000C94C5030C9485000C9493030C946D03DD
:100050000C9485000C9485000C9485000C9485000C
:100060000C9485000C94850000000008000201003B
:100070000003040700000000000000000000000072
:10008000250028002B0000000000240027002A0083
:10009000040404040404040402020202020203032E
:1000A0000303030301020408102040800102040836
:1000B0001020010204081020540611241FBECFEFA7
:1000C000D8E0DEBFCDBF11E0A0E0B1E0EAE8F1E1A9
:1000D00002C005900D92A234B107D9F721E0A2E445
:1000E000B1E001C01D92A93EB207E1F710E0CDE5F5
:1000F000D0E004C02197FE010E94BD08CC35D10795
:10010000C9F70E940F040C94C3080C94000090E0FF
:10011000FC01EC55FF4F249180579F4FFC018491C7
:10012000882399F090E0880F991FFC01EA57FF4F50
:10013000A591B491FC01E458FF4F859194918FB73C
:10014000F894EC91E22BEC938FBF0895AF92BF929D
:10015000CF92DF92EF92FF920F931F93CF93DF9393
:100160006C017B018B01040F151FEB015E01AE18C2
:10017000BF08C017D10759F06991D601ED91FC91E4
:100180000190F081E02DC6010995892B79F7C50111
:10019000DF91CF911F910F91FF90EF90DF90CF9063
:1001A000BF90AF900895FC01538D448D252F30E012
:1001B000842F90E0821B930B541710F0CF96089574
:1001C00001970895FC01918D828D981761F0A28DA1
:1001D000AE0FBF2FB11D5D968C91928D9F5F9F7367
:1001E000928F90E008958FEF9FEF0895FC01918D1D
:1001F000828D981731F0828DE80FF11D858D90E08A
:1002000008958FEF9FEF0895FC01918D228D892F26
:1002100090E0805C9F4F821B91098F73992708950E
:100220008CE491E00E94040121E0892B09F420E094
:10023000822F089580E090E0892B29F00E94100120
:1002400081110C9400000895FC01A48DA80FB92F12
:10025000B11DA35ABF4F2C91848D90E001968F73EE
:100260009927848FA689B7892C93A089B1898C910D
:10027000837080648C93938D848D981306C002885C
:10028000F389E02D80818F7D80830895EF92FF9226
:100290000F931F93CF93DF93EC0181E0888F9B8DA9
:1002A0008C8D98131AC0E889F989808185FF15C063
:1002B0009FB7F894EE89FF896083E889F989808186
:1002C0008370806480839FBF81E090E0DF91CF9155
:1002D0001F910F91FF90EF900895F62E0B8D10E077
:1002E0000F5F1F4F0F731127E02E8C8D8E110CC0E6
:1002F0000FB607FCFACFE889F989808185FFF5CF31
:10030000CE010E942401F1CFEB8DEC0FFD2FF11DEA
:10031000E35AFF4FF0829FB7F8940B8FEA89FB896D
:1003200080818062CFCFCF93DF93EC01888D8823CB
:10033000B9F0AA89BB89E889F9898C9185FD03C048
:10034000808186FD0DC00FB607FCF7CF8C9185FF2D
:10035000F2CF808185FFEDCFCE010E942401E9CF4D
:10036000DF91CF91089590E0FC01E859FF4F24916F
:10037000FC01EC55FF4F3491FC01E057FF4FE49135
:10038000EE23C9F0222339F0233001F1A8F4213003
:1003900019F1223029F1F0E0EE0FFF1FE458FF4F72
:1003A000A591B4918FB7F894EC91611126C0309566
:1003B0003E233C938FBF08952730A9F02830C9F021
:1003C000243049F7809180008F7D03C080918000A8
:1003D0008F7780938000DFCF84B58F7784BDDBCFAC
:1003E00084B58F7DFBCF8091B0008F778093B00074
:1003F000D2CF8091B0008F7DF9CF3E2BDACF3FB7BF
:10040000F8948091470190914801A0914901B091E1
:100410004A0126B5A89B05C02F3F19F00196A11DE2
:10042000B11D3FBFBA2FA92F982F8827BC01CD013E
:10043000620F711D811D911D42E0660F771F881F9D
:10044000991F4A95D1F708958F929F92AF92BF92CC
:10045000CF92DF92EF92FF924B015C010E94FF016D
:100460006B017C010E94FF016C197D098E099F09B7
:10047000683E734081059105A8F321E0821A910836
:10048000A108B10888EEC80E83E0D81EE11CF11C5B
:1004900081149104A104B10429F7FF90EF90DF903B
:1004A000CF90BF90AF909F908F900895CF92DF92A2
:1004B000EF92FF92CF936B017C01AC019B016EEF39
:1004C0007FEF81E090E00E94A6089B01AC0160E014
:1004D00074E284EF90E00E94AB06C0E0EC2FF0E005
:1004E000EE0FFF1FEE5DFE4F80819181CF5F82177F
:1004F0009307A0F3A7019601220F331F441F551F36
:10050000EC2FF0E0EE0FFF1FEE5DFE4FA081B181FA
:100510000E94A0069B01AC0160E074E284EF90E0D1
:100520000E94AB0630938700209386008091810063
:10053000887FC770C82BC093810081E0CF91FF9066
:10054000EF90DF90CF9008958F929F92AF92BF92DD
:10055000CF92DF92EF92FF920F931F93CF936B0195
:100560007C01AEEFB1E0AC019B010E94A0069B01B3
:10057000AC0160E074E284EF90E00E94AB06C90138
:10058000C0E0CC0CDD1CEE1CFF1C812C44E2942E40
:1005900044EFA42EB12CCF5FEC2FF0E0EE0FFF1F45
:1005A000EE5EFE4F0081118108171907A0F3D801F4
:1005B000A70196010E94A0069B01AC01C501B401F0
:1005C0000E94AB06C8012F3F310509F020F72093A8
:1005D000B3008091B100887FC770C82BC093B10071
:1005E00081E0CF911F910F91FF90EF90DF90CF901E
:1005F000BF90AF909F908F900895CF93DF9360E06E
:1006000085E00E94B301D0914B01C8E06D2F61706D
:1006100084E00E94B301D69561E086E00E94B301B8
:1006200060E086E00E94B301C15081F761E085E09F
:10063000DF91CF910C94B301FC0101900020E9F708
:100640003197AF01481B590BBC018CE491E00C942D
:10065000A6008F929F92AF92BF920F931F93CF935A
:10066000DF93CDB7DEB7A1970FB6F894DEBF0FBE0C
:10067000CDBF19A2423008F44AE08E010F5D1F4F32
:10068000842E912CB12CA12CA50194010E94AB06C3
:10069000E62FB901CA01EA30F4F4E05DD801EE9327
:1006A0008D01232B242B252B79F790E080E01097E8
:1006B00019F0CD010E941C03A1960FB6F894DEBF7D
:1006C0000FBECDBFDF91CF911F910F91BF90AF9023
:1006D0009F908F900895E95CE1CF1F920F920FB623
:1006E0000F9211242F933F934F935F936F937F93B8
:1006F0008F939F93AF93BF93EF93FF938CE491E01D
:100700000E942401FF91EF91BF91AF919F918F9132
:100710007F916F915F914F913F912F910F900FBEFD
:100720000F901F9018951F920F920FB60F921124E1
:100730002F938F939F93EF93FF93E0915C01F09140
:100740005D018081E0916201F091630182FD1BC037
:100750009081809165018F5F8F7320916601821770
:1007600041F0E0916501F0E0E45BFE4F958F8093EE
:100770006501FF91EF919F918F912F910F900FBE87
:100780000F901F9018958081F4CF1F920F920FB693
:100790000F9211242F933F938F939F93AF93BF9307
:1007A0008091430190914401A0914501B09146018F
:1007B0003091420123E0230F2D3758F50196A11DFA
:1007C000B11D209342018093430190934401A09373
:1007D0004501B09346018091470190914801A09155
:1007E0004901B0914A010196A11DB11D80934701B5
:1007F00090934801A0934901B0934A01BF91AF91F2
:100800009F918F913F912F910F900FBE0F901F904E
:10081000189526E8230F0296A11DB11DD2CF78941A
:1008200084B5826084BD84B5816084BD85B58260F5
:1008300085BD85B5816085BD80916E0081608093A6
:100840006E0010928100809181008260809381000F
:10085000809181008160809381008091800081601F
:10086000809380008091B10084608093B10080917A
:10087000B00081608093B00080917A0084608093A2
:100880007A0080917A00826080937A0080917A0069
:10089000816080937A0080917A00806880937A00EA
:1008A0001092C10087E00E94870083E00E948700C9
:1008B00085E00E94870084E00E94870086E00E9415
:1008C000870061E083E00E94B30161E087E00E945D
:1008D000B301809180008C7F8093800080918100A3
:1008E000877E80618093810064EF71E080E090E01A
:1008F0000E9456028091B0008C7F81608093B0008E
:100900008091B10088608093B10064EF71E080E075
:1009100090E00E94A40281E7282E80E0382EF101A9
:1009200084918350823030F46AE070E080E090E09F
:100930000E9456020E94FD02E0915C01F0915D016F
:1009400082E08083E0915801F09159011082E0919A
:100950005A01F0915B018FEC808310926401E09169
:100960006001F091610186E08083E0915E01F09189
:100970005F01808180618083E0915E01F0915F0181
:10098000808188608083E0915E01F0915F018081C9
:1009900080688083E0915E01F0915F0180818F7DAE
:1009A000808300E010E089E00E948700F1018491DB
:1009B000833009F4BBC008F096C0823009F4A3C0AC
:1009C00060E089E00E94B301F0E4F0937C00809144
:1009D0007A00806480937A0080917A0086FDFCCF53
:1009E00080917800A0917900BA2FA82F2CE130E0F7
:1009F0000E94B60820E034E040E050E00E9481060A
:100A0000CA01B9010E947F076B017C018EE291E06F
:100A10000E941C0380E391E00E941C03A701960141
:100A2000C701B6010E94A108882309F4A3C083E38B
:100A300091E00E941C0380E391E00E941C038FE37D
:100A400091E00E941C0380E391E00E941C0360EA95
:100A50007FE080E090E00E94240220E030E048ED5A
:100A600051E4C701B6010E942F0860E087FF0BC068
:100A700020E030E040EB51E4C701B6010E94490795
:100A8000181654F061E087E00E94B30164E670E05C
:100A900080E090E00E9424028CE491E00E94040136
:100AA000892BA9F08CE491E00E94E200813309F0E7
:100AB000F3C080914B01816080934B010E94FD0245
:100AC0004AE061E070E080E090E00E9429030115B7
:100AD000110509F468CF0E941001882309F463CF3F
:100AE0000E94000060CF8430C9F1883009F068CFDF
:100AF0008091B00080628093B0002091B30030E01C
:100B0000C4EBD0E007C084B5806284BD27B530E077
:100B1000C8E4D0E0ABE1B0E00E94CD062FEF30E0BA
:100B200040E050E00E94AB0628834ECF80918000C9
:100B30008068809380002091860030918700C8E80B
:100B4000D0E0ABE1B0E00E94CD062FEF30E040E016
:100B500050E00E94AB063983288336CF8091800015
:100B60008062809380002091860030918700CAE8DF
:100B7000D0E0E7CF46015701E894B7F82FEF3FEFF9
:100B80004FE75FE7C501B4010E94A10881110DC0C4
:100B90002FEF3FEF4FE75FE7C501B4010E94490720
:100BA00018161CF487E391E044CF2FEF3FEF4FE797
:100BB0005FE4C701B6010E942F0818161CF48BE3EE
:100BC00091E037CF2FEF3FEF4FE75FECC701B60162
:100BD0000E94490787FDF3CF20E030E0A901C7015B
:100BE000B6010E94490787FF54C06DE28CE491E092
:100BF0000E944601C701B60190582AE037ED43EA4A
:100C00005BE30E94DD062B013C010E944E074B0175
:100C10005C010E947D079B01AC01C301B2010E94EF
:100C2000DC062B013C014AE0C501B4010E94290306
:100C30006EE28CE491E00E94460120E030E040E268
:100C400051E4C301B2010E9434082B013C010E940F
:100C50004E074B01B12CA12C4AE0C501B4010E9402
:100C60002903C501B4010E947D079B01AC01C301AA
:100C7000B2010E94DC0620E030E040E251E40E9434
:100C800034080E944E0790E080E04AE00E94290369
:100C9000D2CEC701B601B1CF803309F018CF109280
:100CA0004B010E94FD0213CFECE4F1E013821282AB
:100CB00088EE93E0A0E0B0E084839583A683B783B9
:100CC00084E091E09183808385EC90E09587848730
:100CD00084EC90E09787868780EC90E0918B808B06
:100CE00081EC90E0938B828B82EC90E0958B848BEF
:100CF00086EC90E0978B868B118E128E138E148E5D
:100D00000895052E97FB1EF400940E94980657FD47
:100D100007D00E94AB0607FC03D04EF40C94980653
:100D200050954095309521953F4F4F4F5F4F089517
:100D300090958095709561957F4F8F4F9F4F089547
:100D40000E94CD06A59F900DB49F900DA49F800D8D
:100D5000911D11240895A1E21A2EAA1BBB1BFD01AF
:100D60000DC0AA1FBB1FEE1FFF1FA217B307E4078A
:100D7000F50720F0A21BB30BE40BF50B661F771FE2
:100D8000881F991F1A9469F76095709580959095C2
:100D90009B01AC01BD01CF010895A29FB001B39F9B
:100DA000C001A39F700D811D1124911DB29F700D74
:100DB000811D1124911D08955058BB27AA270E9418
:100DC000F4060C94F5070E94E70738F00E94EE073E
:100DD00020F039F49F3F19F426F40C94E4070EF444
:100DE000E095E7FB0C94DE07E92F0E94060858F314
:100DF000BA17620773078407950720F079F4A6F500
:100E00000C9428080EF4E0950B2EBA2FA02D0B01A0
:100E1000B90190010C01CA01A0011124FF27591B3F
:100E200099F0593F50F4503E68F11A16F040A22F45
:100E3000232F342F4427585FF3CF469537952795B6
:100E4000A795F0405395C9F77EF41F16BA0B620BB5
:100E5000730B840BBAF09150A1F0FF0FBB1F661FFC
:100E6000771F881FC2F70EC0BA0F621F731F841F3F
:100E700048F4879577956795B795F7959E3F08F065
:100E8000B0CF9395880F08F09927EE0F9795879527
:100E900008950E94BA0708F481E008950E940E08A0
:100EA00088F09F5798F0B92F9927B751B0F0E1F02B
:100EB000660F771F881F991F1AF0BA95C9F714C0DB
:100EC000B13091F00E942808B1E008950C942808F0
:100ED000672F782F8827B85F39F0B93FCCF3869514
:100EE00077956795B395D9F73EF490958095709571
:100EF00061957F4F8F4F9F4F0895E89409C097FBEE
:100F00003EF490958095709561957F4F8F4F9F4FE0
:100F10009923A9F0F92F96E9BB279395F695879524
:100F200077956795B795F111F8CFFAF4BB0F11F4E7
:100F300060FF1BC06F5F7F4F8F4F9F4F16C088238E
:100F400011F096E911C0772321F09EE8872F762FC4
:100F500005C0662371F096E8862F70E060E02AF005
:100F60009A95660F771F881FDAF7880F96958795F1
:100F700097F90895990F0008550FAA0BE0E8FEEFC6
:100F800016161706E807F907C0F012161306E4074D
:100F9000F50798F0621B730B840B950B39F40A2646
:100FA00061F0232B242B252B21F408950A2609F424
:100FB000A140A6958FEF811D811D089597F99F6728
:100FC00080E870E060E008959FEF80EC08950024D1
:100FD0000A941616170618060906089500240A949E
:100FE00012161306140605060895092E0394000C24
:100FF00011F4882352F0BB0F40F4BF2B11F460FFB3
:1010000004C06F5F7F4F8F4F9F4F089557FD9058DB
:10101000440F551F59F05F3F71F04795880F97FBBC
:10102000991F61F09F3F79F0879508951216130676
:101030001406551FF2CF4695F1DF08C016161706A5
:101040001806991FF1CF86957105610508940895DA
:10105000E894BB2766277727CB0197F908950E946C
:10106000BA0708F48FEF08950E9447080C94F5071B
:101070000E94E70738F00E94EE0720F0952311F058
:101080000C94DE070C94E40711240C9429080E94A8
:10109000060870F3959FC1F3950F50E0551F629FAE
:1010A000F001729FBB27F00DB11D639FAA27F00DC1
:1010B000B11DAA1F649F6627B00DA11D661F829FE8
:1010C0002227B00DA11D621F739FB00DA11D621FCD
:1010D000839FA00D611D221F749F3327A00D611DEA
:1010E000231F849F600D211D822F762F6A2F1124CC
:1010F0009F5750409AF0F1F088234AF0EE0FFF1FFF
:10110000BB1F661F771F881F91505040A9F79E3F55
:10111000510580F00C94DE070C9429085F3FE4F33E
:10112000983ED4F3869577956795B795F795E795AB
:101130009F5FC1F7FE2B880F911D9695879597F9B4
:1011400008950E94BA07880B990B0895DB018F93CD
:101150009F930E94A006BF91AF91A29F800D911D09
:10116000A39F900DB29F900D112408950E94CD066B
:10117000B7FF0895821B930B0895EE0FFF1F059094
:0A118000F491E02D0994F894FFCFDC
:10118A00000000004601A600D30093010401E2001A
:10119A00F600000001000800200040008000000165
:1011AA0000040000010008004000000100042A00B9
:1011BA000D0A006E616E00696E66006F7666002F1A
:0211CA00000023
:00000001FF
